:100000000C9434000C943E000C943E000C943E0082
:100010000C943E000C943E000C943E000C943E0068
:100020000C943E000C943E000C943E000C943E0058
:100030000C943E000C943E000C943E000C943E0048
:100040000C943E000C943E000C943E000C943E0038
:100050000C943E000C943E000C943E000C943E0028
:100060000C943E000C943E0011241FBECFEFD8E04C
:10007000DEBFCDBF0E9440000C9468000C940000CD
:10008000259A249A239A229A55985D9A80E090E0C6
:1000900028E034E040E150E282309105A9F083305D
:1000A0009105A1F0009771F455B96FE372E4EFE0A8
:1000B00061507040E040E1F700C00000839583701C
:1000C00090E0EACF45B9F1CF25B9EFCF35B9EDCF03
:0400D000F894FFCFD2
:00000001FF
