:100000000C9434000C943E000C943E000C943E0082
:100010000C943E000C943E000C943E000C943E0068
:100020000C943E000C943E000C943E000C943E0058
:100030000C943E000C943E000C943E000C943E0048
:100040000C943E000C943E000C943E000C943E0038
:100050000C943E000C943E000C943E000C943E0028
:100060000C943E000C943E0011241FBECFEFD8E04C
:10007000DEBFCDBF0E9440000C9484000C940000B1
:10008000259A249A239A229A55985D9A80E090E0C6
:1000900020E130E0482F440F440F45B94FE754E8C2
:1000A0006EE1415050406040E1F700C00000019611
:1000B000B9010E945C00EECF97FB072E16F4009466
:1000C00007D077FD09D00E94700007FC05D03EF4F0
:1000D000909581959F4F0895709561957F4F0895F4
:1000E000AA1BBB1B51E107C0AA1FBB1FA617B7075E
:1000F00010F0A61BB70B881F991F5A95A9F780957A
:0C0100009095BC01CD010895F894FFCF4C
:00000001FF
