:100000000C9434000C943E000C943E000C943E0082
:100010000C943E000C943E000C943E000C943E0068
:100020000C943E000C943E000C943E000C943E0058
:100030000C943E000C943E000C943E000C943E0048
:100040000C943E000C943E000C943E000C943E0038
:100050000C943E000C943E000C943E000C943E0028
:100060000C943E000C943E0011241FBECFEFD8E04C
:10007000DEBFCDBF0E9440000C9489000C940000AC
:10008000259A249A239A229A55985D9A80E090E0C6
:10009000E0E1F0E04D99FECF35B1337C282F220FFF
:1000A000220F232B25B92FEF35EA4EE021503040A7
:1000B0004040E1F700C000000196BF010E946100CE
:1000C000E9CF97FB072E16F4009407D077FD09D0EF
:1000D0000E94750007FC05D03EF4909581959F4FD6
:1000E0000895709561957F4F0895AA1BBB1B51E140
:1000F00007C0AA1FBB1FA617B70710F0A61BB70B98
:10010000881F991F5A95A9F780959095BC01CD013C
:060110000895F894FFCFF2
:00000001FF
