:100000000C9434000C943E000C943E000C943E0082
:100010000C943E000C943E000C943E000C943E0068
:100020000C943E000C943E000C943E000C943E0058
:100030000C943E000C943E000C943E000C943E0048
:100040000C943E000C943E000C943E000C943E0038
:100050000C943E000C943E000C943E000C943E0028
:100060000C943E000C943E0011241FBECFEFD8E04C
:10007000DEBFCDBF0E9440000C949C000C94000099
:10008000259A249A239A229A55985D9A80E090E0C6
:10009000E0E1F0E080FB222725F9AC0133E0559543
:1000A00047953A95E1F7440F440F242BAC01559541
:1000B000479542954071242BAC0155954795559530
:1000C000479540FB442743F9242B25B92FE734E813
:1000D0004EE1215030404040E1F700C00000019661
:1000E000BF010E947400D6CF97FB072E16F4009430
:1000F00007D077FD09D00E94880007FC05D03EF4A8
:10010000909581959F4F0895709561957F4F0895C3
:10011000AA1BBB1B51E107C0AA1FBB1FA617B7072D
:1001200010F0A61BB70B881F991F5A95A9F7809549
:0C0130009095BC01CD010895F894FFCF1C
:00000001FF
