:020000040800F2
:100000000030002065100008A9090008AB090008AD
:1000100000000000000000000000000000000000E0
:10002000000000000000000000000000AD09000812
:100030000000000000000000AF090008B908000837
:10004000B510000800000000B5100008B510000849
:10005000B5100008B5100008B5100008B109000877
:1000600000000000B5100008B5100008B510000829
:10007000B5100008B5100008B51000080000000019
:10008000B51000080000000000000000B5100008D6
:1000900000000000B5100008B5100008B5100008F9
:1000A00000000000B510000800000000B5100008B6
:1000B000B510000800000000000000000000000073
:1000C00003B47146490840004900095E49008E4466
:1000D00003BC7047002243088B4274D303098B4250
:1000E0005FD3030A8B4244D3030B8B4228D3030C08
:1000F0008B420DD3FF22090212BA030C8B4202D3AA
:100100001212090265D0030B8B4219D300E0090AD1
:10011000C30B8B4201D3CB03C01A5241830B8B42DA
:1001200001D38B03C01A5241430B8B4201D34B03C3
:10013000C01A5241030B8B4201D30B03C01A524128
:10014000C30A8B4201D3CB02C01A5241830A8B42AD
:1001500001D38B02C01A5241430A8B4201D34B0296
:10016000C01A5241030A8B4201D30B02C01A5241FA
:10017000CDD2C3098B4201D3CB01C01A52418309AE
:100180008B4201D38B01C01A524143098B4201D3E8
:100190004B01C01A524103098B4201D30B01C01A13
:1001A0005241C3088B4201D3CB00C01A524183088D
:1001B0008B4201D38B00C01A524143088B4201D3BA
:1001C0004B00C01A5241411A00D20146524110461A
:1001D0007047FFE701B5002000F006F802BDC046F9
:1001E0000029F7D076E770477047C0460448054BB2
:1001F00010B5834203D0044B002B00D0984710BDAC
:100200005C0000205C000020000000000648074958
:10021000091A8B10C90FC91810B5491003D0044B27
:10022000002B00D0984710BD5C0000205C0000202F
:100230000000000010B5074C2378002B09D1FFF710
:10024000D5FF054B002B02D0044800E000BF01237E
:10025000237010BD5C00002000000000041A00089C
:10026000054B10B5002B03D00449054800E000BF42
:10027000FFF7CCFF10BDC04600000000600000206A
:10028000041A000872B6FEE710B58CB005AC1C224B
:100290000021200000F032FF14220021684600F007
:1002A0002DFF12490B6807229343063A13430B6054
:1002B000059280235B020693200000F035FC0028A5
:1002C0000FD1684607230093063B01930023029356
:1002D00003930493012100F0B3FD002803D10CB077
:1002E00010BDFFF7CFFFFFF7CDFFC0460020024053
:1002F00010B592B000F0B2FBFFF7C6FF00F03AF87D
:10030000174800F085F8174B1A68174905AC20000C
:1003100000F0D2FE200000F07BF802AA134B11007F
:10032000180018C818C103880B806C46009202237D
:10033000237100236371A37100F0DAF900F0C4FAAD
:100340000098019900F0EDFA094B1B78002BFBD0C7
:10035000684600F0FFFA064B00221A70F4E7C04628
:10036000281A0008080000203C1A00081C1A00087F
:100370008000002010B51D4A536B012003435363D6
:10038000A023DB0519683024A14319601968103CCB
:1003900021431960196A164C214019621C6A802198
:1003A0004900214319621968C024A14319601968E2
:1003B000403C21431960196A0E4C214019621C6AA5
:1003C0008021490121431962D16B80239B020B4399
:1003D000D363094BA222FF32DA601A6808210A436C
:1003E0001A601A6802431A6010BDC046001002402D
:1003F000FFF0FFFFFF0FFFFF00440040034BDB69EE
:100400001B06FBD5014B98627047C0460044004074
:1004100010B5040002E00134FFF7F0FF2078002857
:10042000F9D110BD10B584B02248FFF7F1FF224882
:10043000FFF7EEFF214B1A78214901AC200000F0B4
:100440003BFE2000FFF7E4FFA023DB055A694021B3
:100450008A435A615A691B490A405A6107220CE0D3
:10046000A021C9054B69174803404B6116494869EB
:100470008023DB0003434B61013A002A11DB124960
:100480004B69124803404B610C4B1B781341DB074F
:10049000E6D5A021C905486980239B0003434B6131
:1004A000E4E7A022D205536940210B43536104B015
:1004B00010BDC046541A0008701A000878000020C9
:1004C000801A0008FFFDFFFF00040050FFFBFFFF44
:1004D00010B502281ED00BD8002813D0012818D13F
:1004E000104CE06A4843FF21FFF7F4FDA06310E0E1
:1004F00003280ED10B4CE06A4843FF21FFF7EAFDC9
:10050000E06306E0084CE06A4843FF21FFF7E2FDA4
:10051000606310BD034CE06A4843FF21FFF7DAFD3A
:100520006063F6E70004004000200040F8B5DE46B6
:1005300057464E464546E0B50700A023DB051A683E
:100540005E490A401A601A68802109020A431A604B
:100550001A6A120112091A62186A8022D20502432D
:100560001A62574C236C19432164564E2F23B362F1
:10057000554AF262B36955498B460B40B361B36982
:1005800060218A460B43B361B369583989460B43EE
:10059000B361336A073988460B4333623900002060
:1005A000FFF796FF4A4D2B68C02293432B602B68C0
:1005B000403A13432B602B6A464A13402B622A6A47
:1005C000C0239B0113432B62E36B02221343E363BB
:1005D000414C2F23A3623C4AE262A3693F4A134085
:1005E000A361A269C023DB011343A361A369802235
:1005F00012011343A361236A1022134323623900BB
:100600000120FFF765FF2B68354A13402B602A68ED
:1006100080239B0013432B602B6A324A13402B62CA
:100620002A6A80235B0213432B62A36959460B405D
:10063000A361A36951460B43A361A36949460B43D8
:10064000A361236A41460B43236239000220FFF76E
:100650003FFF2B68244A13402B602B688022120135
:1006600013432B602B6A214A13402B622A6AC02352
:100670009B0313432B62E3695A461340E361E3692A
:1006800052461343E361E3694A461343E361226A36
:1006900080235B001343236239000320FFF718FF18
:1006A0003368424613433360236813432360F0BC2E
:1006B000BB46B246A946A046F8BDC046FF3FFFFF75
:1006C0000010024000200040E70300008FFFFEFF03
:1006D00000040050FF0FFFFF00040040FF8FFFFEEB
:1006E000FFFCFFFFFFFFF0FFFFF3FFFFFFFF0FFF28
:1006F00010B53548FFF78CFE344B5A6B01210A4385
:100700005A635A6B01310A435A63A023DB051A6806
:10071000920092081A6019688022D2050A431A6072
:100720005969802212020A435A611A6828490A400C
:100730001A601968802252010A431A601A68254912
:100740000A401A6019688022D2020A431A60224BBA
:100750001A6822490A401A601968802252030A4323
:100760001A601F4B00221A70FFF75CFE00230DE099
:10077000032B0AD11A490A78412082430A7004E007
:1007800017490A780C2082430A700133032B14DCCA
:10079000144AD354022B0AD0EADC002BF0D0012BF0
:1007A000F3D10F490A78122082430A70EDE70C4911
:1007B00008785F2202400A70E7E7FFF733FE7D20EA
:1007C000FFF7B4FE10BDC046881A000800100240B2
:1007D000FFCFFFFFFFFFF3FF00040050FFFFCFFF3D
:1007E000780000207C00002070B504000D00022875
:1007F0002CD008D800280BD0012826D12848FFF794
:1008000007FE042609E003281FD10626002404E081
:100810002448FFF7FDFD03260224022D19D0042DE4
:1008200029D0012D11D12048FFF7F2FD0123180036
:10083000A0401E490A780243D2B20A70B340DB439B
:100840005BB213400B70FFF7EDFD70BD072605246A
:10085000E3E71748FFF7DCFD01221300A340DB4369
:100860005BB21249087803400B70B24013430B701F
:10087000FFF7D8FDE9E70F48FFF7CAFD01231A008B
:10088000A240D24352B20949087802400A70B340EC
:10089000DB435BB213400B70FFF7C4FDD5E7C046E6
:1008A000B81A0008A01A0008D01A00087800002022
:1008B000E41A0008F81A0008024A13780133DBB280
:1008C0001370704780000020074A084B53600848A7
:1008D000036A1B021B0AC02109060B4303620023A3
:1008E000936007331360704710E000E07FBB0000A7
:1008F00000ED00E010B582B06C4600900191A17847
:100900000020FFF7E5FDE1780120FFF7E1FD217808
:100910000020FFF769FF61780120FFF765FF02B053
:1009200010BD00B583B06B460090019159798B00E2
:100930005B18C118C35C4A7812021A438B781B04F7
:100940001343C878000618430979FFF7D3FF03B0B3
:1009500000BD000010B50468427993009B18E418AC
:1009600083790133DBB2837121798B4219D3013250
:10097000D2B242710023837103799A4201D30023DA
:1009800043710848FFF744FD2378627812021A4346
:10099000A3781B041343E078000618432179FFF77E
:1009A000A9FF10BD0C1B0008FEE7FEE7704770476B
:1009B00010B5002000F01AF810BD000082B00A4BFC
:1009C000196C012211431964196C0A400092009AB3
:1009D000DA6B802149050A43DA63DB6B0B40019334
:1009E000019B02B07047C0460010024010B54300A2
:1009F00018188000024BC01800F0E4FA10BDC04681
:100A00008400002010B50400114B1978002901D191
:100A1000012010BDFA208000FFF75CFB01000D4BA8
:100A20001868FFF757FB00F07BF800280DD1032C66
:100A300001D90120EDE7013000222100404200F001
:100A40006BF8054B1C600020E3E70120E1E7C0469E
:100A500000000020080000200400002010B5032042
:100A6000FFF7D0FF041E02D00124200010BDFFF7C5
:100A7000A5FFFAE7014B18687047C04690000020B8
:100A800070B5002811DB8308134DC0339B005C59FF
:100A900003221040C000FC3216008640B443890196
:100AA0000A40824022435A5170BD0F230340083B45
:100AB0009B0806339B00094A944663445C68032202
:100AC0001040C000FC3215008540AC4389010A404B
:100AD000824022435A60E7E700E100E000ED00E0D9
:100AE000013880235B0498420FD2094A50600948BC
:100AF000036A1B021B0AC02109060B430362002381
:100B0000936007331360002070470120FCE7C04664
:100B100010E000E000ED00E010B5FFF7B1FF10BD00
:100B200010B5FFF7DDFF10BD70B5041E00D139E12F
:100B30000368DB072CD5A14B9A6838231340082B98
:100B400022D043688022520293422ED0A022D202A9
:100B5000934231D0994B1A6899490A401A601A6831
:100B600098490A401A606368002B31D0FFF782FF72
:100B70000500924B1B689B030AD4FFF77BFF401BC9
:100B80006428F6D903200EE14368002B00D10BE165
:100B900023689B0747D5894B9B6838221A4261D14D
:100BA000E368002B22D10120FDE0844A11688023F4
:100BB0005B020B431360D6E7804B19688022D20298
:100BC0000A431A601968802252020A431A60CAE76F
:100BD000FFF750FF0500794B1B689B03D8D5FFF743
:100BE00049FF401B6428F6D90320DCE0734B5A68A8
:100BF00075490A40616909020A435A601A687349D3
:100C00000A4021690A431A601B68DB0A07221A405E
:100C10006F4BD3406F4A13606F4B1868FFF7F2FEBB
:100C2000002800D0C2E023681B0757D5634B9A68A1
:100C300038231340182B4ED0A369002B77D05F4A7E
:100C4000136E01210B431366FFF714FF05005B4B86
:100C50001B6E9B0742D4FFF70DFF401B0228F6D9FD
:100C60000320A0E0E368002B22D0544A13685749C0
:100C70000B4021690B431360116880235B000B4319
:100C80001360FFF7F7FE05004C4B1B685B0506D4AD
:100C9000FFF7F0FE401B0228F6D9032083E0474906
:100CA0004B68494A13406269120213434B60BAE72A
:100CB000424A136849490B401360FFF7DBFE050009
:100CC0003E4B1B685B05AED5FFF7D4FE401B0228E8
:100CD000F6D9032067E0A369002B69D023685B077E
:100CE00068D5364B9A6838231340202B32D0A3683E
:100CF000012B34D0052B38D0304BDA6D01218A43DB
:100D0000DA65DA6D03318A43DA65A368002B38D0DF
:100D1000FFF7B0FE0400294BDB6D9B072FD4FFF7D4
:100D2000A9FE001B2E4B9842F5D903203BE0234A35
:100D3000136E01218B431366FFF79CFE05001F4BCA
:100D40001B6E9B07CAD5FFF795FE401B0228F6D9FC
:100D5000032028E0A368002B2ED0002023E0174AB0
:100D6000D36D01210B43D365CFE7144BDA6D04211A
:100D70000A43DA65DA6D03390A43DA65C5E700200C
:100D800011E0FFF777FE04000C4BDB6D9B0707D5E6
:100D9000FFF770FE001B124B9842F5D9032002E0CA
:100DA000002000E0012070BD0120FCE70120FAE7EF
:100DB0000120F8E70020F6E70120F4E700100240E8
:100DC000FFFFFEFFFFFFFBFFFF80FFFFFFC7FFFFEF
:100DD000006CDC020800002004000020FFFEFFFF82
:100DE00088130000144B9B6838221A4207D1124B1B
:100DF0001A68D20A072313401048D84070470E4B98
:100E00009A6838231340082B10D00B4B9A6838236C
:100E10001340202B0CD0084B9A6838231340182B12
:100E200001D00020EAE7FA20C001E7E70348E5E740
:100E300080200002E2E7C04600100240006CDC02A5
:100E400070B504000D00002800D1A4E0544B1A68CE
:100E5000072313408B4221D323689A0710D55B07E1
:100E600007D550498A68504B1A40B0231B011343E1
:100E70008B604C4A93684D490B40E1680B4393608B
:100E80002368DB074CD56368012B1ED0002B39D1BA
:100E9000444A126852051CD4012064E0404A136899
:100EA00007218B432B431360FFF7E4FD06003C4B07
:100EB0001A6807231340AB42CED0FFF7DBFD801B3F
:100EC0003B4A9042F3D903204DE0364A1268920320
:100ED00063D534498A680720824313438B60FFF748
:100EE000C9FD06002F4B9B6838221A406368DB005F
:100EF0009A4215D0FFF7BEFD801B2D4B9842F1D9C9
:100F0000032030E0032B05D0264AD26D9207E0D4AF
:100F1000012028E0234A126E9207DAD4012022E051
:100F20001F4B1A6807231340AB421DD823685B0789
:100F300006D51C4A93681F490B4021690B439360F7
:100F4000FFF750FF174B9A68120A0F2313401A4AF3
:100F50009B009A581F231340D840184B1860184B19
:100F60001868FFF74FFD70BD0D4A136807218B43CA
:100F70002B431360FFF77EFD0600094B1A68072319
:100F80001340AB42D2D0FFF775FD801B084B98424F
:100F9000F3D90320E7E70120E5E70120E3E7C046B6
:100FA0000020024000100240FF84FFFFFFF0FFFF1F
:100FB00088130000FF8FFFFF281B00080800002097
:100FC0000400002070B506000268140C01252C40B6
:100FD0001F2313409D4064010A4BE3181A68154211
:100FE00004D01D604368002B00D09847064B9C46F8
:100FF000644423681D4204D02560B368002B00D0F0
:10100000984770BD0C18024010180240024B802215
:1010100012059A607047C04600ED00E010B503006D
:101020000C4A0D49521A0D490968002907D00B498D
:101030000868C318934206D8084A136010BD0749D0
:1010400007480860F3E700F061F80C230360012013
:101050004042F3E70030002000040000940000202C
:10106000E00100200D488546FFF7D0FF002103E096
:101070000B4B5B58435004310A480B4B42189A42C1
:10108000F6D30A4A02E0002313600432084B9A4266
:10109000F9D300F041F8FFF72BF9FEE7003000200C
:1010A000A41B0008000000205C0000205C00002061
:1010B000E0010020FEE700000EB410B500249DB052
:1010C000029006900A481FAB07900490094804CB91
:1010D0000590094802A9006801934C6600F0A2F946
:1010E000029B1C701DB010BC08BC03B01847C04662
:1010F000FFFFFF7F0802FFFF0C00002003008218A3
:10110000934200D1704719700133F9E7014B186819
:101110007047C0460C00002070B500260C4C0D4DE9
:10112000641BA410A64209D1002600F06BFC0A4CF7
:101130000A4D641BA410A64205D170BDB300EB5844
:1011400098470136EEE7B300EB5898470136F2E7CF
:101150009C1B00089C1B0008A01B00089C1B00088F
:101160007047704770B505000C1E10D0043C236812
:10117000002B00DAE418280000F0E0F81D4A13689C
:10118000002B05D163601460280000F0DFF870BD0B
:10119000A34208D9206821188B42F3D119685B68F3
:1011A00009182160EEE71A005B68002B01D0A3420A
:1011B000F9D911685018A0420BD1206809185018AD
:1011C00011608342E0D118685B6841181160536078
:1011D000DAE7A04202D90C232B60D5E7206821185A
:1011E0008B4203D119685B68091821606360546001
:1011F000CAE7C046DC01002070B50F4E0D00316813
:101200000400002902D100F09FFB3060290020007B
:1012100000F09AFB431C03D101256D42280070BDEC
:101220000323C51C9D43A842F8D0291A200000F0D2
:101230008BFB0130F2D1EFE7D8010020F7B5032294
:10124000CB1C9343083305001F000C2B34D20C2712
:10125000B94233D8280000F071F8374E33681C00CB
:10126000002C2FD139002800FFF7C6FF0400431CD3
:101270005FD134680094009B002B4AD1002C52D0DF
:1012800023682800E3180099019300F05DFB019B9F
:10129000834248D123682800FF1A3900FFF7ACFFCA
:1012A000013040D02368DB19236033685A68002A74
:1012B00033D1009B336019E0002BC9DA0C232B607B
:1012C0000020FEBD2168C91B20D40B290AD9E219D0
:1012D0002760A34204D1326063681160536005E067
:1012E0005A60F9E76268A3420ED13260280000F02C
:1012F0002DF8200007220B30231D9043C21A98427C
:10130000DFD01B1AA350DCE75A60EFE723006468C4
:10131000A6E7009C63680093ADE71A005B68A342F0
:10132000FBD10023DAE70C2328002B6000F00EF835
:10133000C6E70760DAE7C046DC01002010B50248C6
:10134000FFF70EFF10BDC046D401002010B50248C3
:10135000FFF707FF10BDC046D4010020F0B58E682E
:1013600085B01F000C00330002900392BE4254D897
:101370000C22885E9022D20010422CD003220969F0
:1013800023685B1A019363695343019ADD0FED18DB
:101390007B1C6D109B182A00AB4201D91D001A005E
:1013A000400527D511000298FFF748FF061E2AD0F6
:1013B000019A216900F0E5FAA289194B1A408023AD
:1013C0001343A381019B2661F618266065613E00E8
:1013D000ED1A3B00A5601F003A000399206800F059
:1013E000A1FA0020A3689B1BA3602368DB1923607C
:1013F00005B0F0BD029800F0CDFA061EE2D12169D9
:101400000298FFF7AFFE0C230120029A40421360BE
:10141000A28934331343A381EAE73E00DCE7C046E8
:101420007FFBFFFFF0B59FB002901C008B890E0080
:1014300015001B0611D50B69002B0ED14021FFF7BB
:10144000FDFE30603061002805D10C23029A136044
:1014500001204042D4E0402373610023292102AAE5
:1014600052180B9320331370013102AA1033521813
:10147000137005942C002378002B01D0252B48D124
:10148000671BAC420BD03B002A0031000298FFF7EB
:1014900065FF013000D1AEE00B9BDB190B93237885
:1014A000002B00D1A7E001225321002352420792D2
:1014B00002AA5218651C06930993089313701C9393
:1014C000554F29780522380000F050FA6C1C069917
:1014D00006AB00281FD1CA0604D55327202202A834
:1014E000C01902700A0704D553272B2202A8C0197D
:1014F00002702A782A2A15D02C0000200A27DA68E0
:101500002178651C3039092950D9002811D0099259
:101510000FE00134AFE70123C01B83400B432500DC
:101520000693CDE7059A101D12680590002A37DB57
:10153000DA6022782E2A0CD162782A2A3BD1059AC9
:101540000234111D12680591002A01DA012252426B
:101550005A60324D03222800217800F007FA06AFC6
:10156000002806D04023401B8340069A01341343D1
:101570000693217806222A48651C397600F0F6F990
:1015800000283FD0274B002B29D10722059B07338A
:101590009343083305930B9B03995B180B9369E7FF
:1015A0005242DA6002220A430692C2E77A432C00D2
:1015B00001205218A4E700220A205A6011001300EB
:1015C00001342278651C303A092A03D9002BC0D097
:1015D0000791BEE741432C0001238918F1E705AAD2
:1015E000009239003200104B029800E000BF0390D7
:1015F000039B0133CFD1B3890B985B0600D527E756
:101600001FB0F0BD05AA009239003200064B0298C7
:1016100000F07CF8EBE7C046681B00086E1B000872
:10162000721B0008000000005D130008F7B51600EB
:1016300001938A680B690C000090934200DA130052
:101640002200336043321278002A01D00133336024
:1016500023689B0602D53368023333602268062371
:1016600015001D401A4227D0230043331B785A1E11
:1016700093412268920630D4220001990098089D77
:101680004332A847013025D00622236800251340A5
:10169000042B05D13368E568ED1AEB43DB171D40D9
:1016A000A3682269934201DD9B1AED180026B5421A
:1016B00020D1002010E00135E36832689B1AAB426C
:1016C000D2DD2200012301990098089F1932B84702
:1016D0000130F0D101204042FEBD3020E1184331FD
:1016E000087021005A1C45310978A2184332023390
:1016F0001170C1E72200012301990098089F1A3256
:10170000B8470130E6D00136D1E70000F0B58BB024
:1017100006920A0043320793059003920A7E0C005A
:10172000109B782A09D8622A0BD8002A00D1BAE087
:101730007A490491582A00D18EE0250042352A705A
:1017400022E0100063381528F7D8FEF7B9FC160020
:101750001F00F6FFF6FFF6FFF6FF1F00F6FFF6FF8D
:10176000F6FFF6FF9F0036007E00F6FFF6FFB000A2
:10177000F6FF3600F6FFF6FF820025001A684235B4
:10178000111D196013682B7001239EE01868096809
:10179000021D0D060BD506681A60002E03DA2D23F4
:1017A000039A764213705D4B0A27049318E006688B
:1017B0001A604906F1D536B2EFE70868196840C9E2
:1017C000050602D4400600D5B6B21960534B0A276D
:1017D00004936F2A00D1023F2300002243331A7082
:1017E0006368A360002B06DB04212268039D8A4303
:1017F000226033430CD0039D30003900FEF7F0FC2B
:10180000049B013D5B5C2B70330006009F42F3D9C3
:10181000082F09D12368DB0706D5626823699A423D
:1018200002DC3023013D2B70039B5B1B2361079B74
:10183000210000930598069B09AAFFF7F7FE0130E7
:1018400048D1012040420BB0F0BD202209680A4374
:101850002260782232490491210045310A701968CA
:10186000226840C9100602D4500600D5B6B21960ED
:10187000D30702D5202313432360002E01D0102765
:10188000AAE72022236893432360F8E71A680D68CB
:10189000101D4969186013682E0601D5196002E011
:1018A0006D06FBD519800023039D2361BFE71A68ED
:1018B000111D1960156800212800626800F056F8B3
:1018C000002801D0401B6060636823610023039AF5
:1018D0001370ACE72A00236906990598079DA8476D
:1018E0000130AED023689B0715D4099BE06898426D
:1018F000A9DA1800A7E72200012306990598079E98
:101900001932B04701309CD00135E368099A9B1A1F
:10191000AB42F0DCE9E70025F7E7C046791B000899
:101920008A1B000810B5884202D98B18984208D348
:1019300000239A4207D0CC5CC4540133F9E78B5C96
:101940008354013AFBD210BD002370B5064D04004C
:1019500008002B60FFF762FB431C03D12B68002BB0
:1019600000D0236070BDC046D0010020C9B28218EB
:10197000904201D10020704703788B42FBD00130A8
:10198000F6E7002310B59A4200D110BDCC5CC454D8
:101990000133F8E7F7B506000C001500002905D162
:1019A0001100FFF74BFC04002000FEBD002A03D10C
:1019B000FFF7D8FB2C00F7E700F01CF80700854282
:1019C00002D84308AB42EFD329003000FFF736FCC2
:1019D0000190002801D1019CE6E72A00BD4200D910
:1019E0003A0021000198FFF7CCFF21003000FFF7FB
:1019F000B9FBF0E70B1F1B68181F002B01DA0B580F
:101A0000C0187047F8B5C046F8BC08BC9E46704781
:0C1A1000F8B5C046F8BC08BC9E46704704
:101A1C000101C8C8C80202C8C832000075617274DE
:101A2C0020696E697469616C697A65640D0A0000DD
:101A3C0053797374656D436F7265436C6F636B3A66
:101A4C0020256C750D0A00005472616E736D6974FB
:101A5C0074696E67206C617463682073746174655B
:101A6C000D0A00004C617463682073746174653AEC
:101A7C002000000025640D0A00000000496E697406
:101A8C0069616C697A696E67206D6F746F72730D22
:101A9C000A00000052756E6E696E672046524F4EFA
:101AAC00545F4C4546540D0A0000000052756E6E92
:101ABC00696E672046524F4E545F52494748540D49
:101ACC000A00000052756E6E696E6720464F5257C1
:101ADC004152440D0A00000052756E6E696E67200B
:101AEC004241434B574152440D0A000052756E6EF1
:101AFC00696E672052454C454153450D0A00000064
:101B0C00457865637574696E67206E657874206DB1
:101B1C00616E65757665720D0A00000000000000AC
:101B2C0000000000000000000000000000000000A9
:101B3C000000000000000000000000000100000098
:101B4C00020000000300000004000000060000007A
:101B5C00070000000800000009000000232D302BB6
:101B6C002000686C4C006566674546470030313292
:101B7C0033343536373839414243444546003031E9
:101B8C003233343536373839616263646566000048
:041B9C0061020008DA
:041BA0003502000802
:101BA4000100000004000000001BB700100000202A
:101BB40000000000980000200001002068010020BF
:101BC4000000000000000000000000000000000011
:101BD4000000000000000000000000000000000001
:101BE40000000000000000000000000000000000F1
:0C1BF400000000000000000000000000E5
:04000005080010657A
:00000001FF
