:100000000C9434000C9451000C9451000C94510049
:100010000C9451000C9451000C9451000C9451001C
:100020000C9451000C9451000C9451000C9450010C
:100030000C9451000C9451000C9451000C945100FC
:100040000C9451000C9451000C9451000C945100EC
:100050000C9451000C9451000C9451000C945100DC
:100060000C9451000C94510011241FBECFEFD8E026
:10007000DEBFCDBF11E0A0E0B1E0EAE2F4E002C0F3
:1000800005900D92A231B107D9F721E0A2E1B1E0CC
:1000900001C01D92A431B207E1F70E94E5010C9462
:1000A00013020C9400002C98289827E030E05C980C
:1000B0008091120190E0022E02C0959587950A94D6
:1000C000E2F780FF07C0289A5C9A2150310978F73F
:1000D0002C9A08952898F8CF82309105E9F070F4B1
:1000E0006770892B71F48091B00083688093B000B1
:1000F0006093B1001092B300239A08950397A1F082
:1001000008958091B00083628093B0006093B10045
:100110001092B400539A089584B5836884BD6770C3
:1001200065BD17BC569A089584B5836284BD677017
:1001300065BD18BC559A08958230910561F028F488
:10014000892B31F46093B3000895039731F008953B
:100150006093B400089567BD089568BD0895CF9376
:10016000DF930F92CDB7DEB79C0169838230910592
:1001700009F188F490911201232B99F4937F9093C5
:1001800012010E945300698180E090E00F90DF919E
:10019000CF910C946C000397C1F00F90DF91CF9139
:1001A00008959D7E909312010E945300698181E021
:1001B00090E0ECCF809112018F75809312010E9424
:1001C0005300698182E090E0E1CF809112018E7B43
:1001D000809312010E945300698183E090E0D6CFA2
:1001E000249A209A549A579A109212010E9453000E
:1001F0005F986DE780E090E00E94AF006DE781E0DE
:1002000090E00C94AF009C018430910508F047C049
:10021000FC01E25FFE4F9081265F3E4FF901208195
:100220006230C9F0643049F16130C9F541E050E015
:10023000BA0101C0660F9A95EAF7862F90911201D4
:10024000892B01C0440F2A95EAF7409584238093B7
:1002500012010C94530041E050E0FA0101C0EE0F8E
:100260009A95EAF78E2F809590911201892301C00B
:10027000440F2A95EAF7842BEACF41E050E0BA0117
:1002800001C0660F2A95EAF7262F01C0440F9A9500
:10029000EAF7242B2095809112018223D8CF08956C
:1002A0008F938FB78F93809113018F5F809313018A
:1002B0008F918FBF8F9118958BE08093810083EC95
:1002C00099E09093890080938800EFE6F0E08081C8
:1002D000826080830895CF93DF9300D00F92CDB7D3
:1002E000DEB7DC0113962C911397ED91FD91B5E0EB
:1002F0002B9FE00DF11D112480818983A181AA83A8
:10030000B381BB83628180E090E00E949C006B819E
:1003100081E090E00E949C00698180E090E00E9472
:1003200003016A8181E090E00F900F900F90DF91C0
:10033000CF910C940301CF93DF9300D00F92CDB7F0
:10034000DEB7FC0134813F5F34838081918123815A
:10035000DC0145E0249FA00DB11D112414964C91A1
:10036000341768F12F5F238314823281231710F032
:10037000138220E0FC0135E0239FE00DF11D1124E4
:100380004081498381818A8333813B83628180E01C
:1003900090E00E949C006B8181E090E00E949C00B4
:1003A000698180E090E00E9403016A8181E090E031
:1003B0000F900F900F90DF91CF910C9403010F904D
:1003C0000F900F90DF91CF910895CDB7DEB72F97A3
:1003D0000FB6F894DEBF0FBECDBF259A2AE0E0E04D
:1003E000F1E0CE010196DC0101900D922A95E1F732
:1003F0008B879C8782E08D871E861F860E945C010A
:1004000078940E94F0008E01055F1F4FC8010E9482
:100410006B01809113018115E1F3C8010E949B01DA
:0A04200010921301F6CFF894FFCFFD
:10042A000101C8C8C80202C8C8320304070602018B
:02043A000500BB
:00000001FF
