:100000000C9434000C9451000C9451000C94510049
:100010000C9451000C9451000C9451000C9451001C
:100020000C9451000C9451000C9451000C9453000A
:100030000C9451000C9451000C9451000C945100FC
:100040000C9451000C9451000C9451000C945100EC
:100050000C9451000C9451000C9451000C945100DC
:100060000C9451000C94510011241FBECFEFD8E026
:10007000DEBFCDBF11E0A0E0B1E0E2E4F3E002C0FA
:1000800005900D92A830B107D9F721E0A8E0B1E0C2
:1000900001C01D92A231B207E1F70E9460010C94E9
:1000A0009F010C9400008F938FB78F93809108016C
:1000B0008F5F809308018F918FBF8F9118958BE090
:1000C0008093810083EC99E090938900809388006D
:1000D000EFE6F0E080818260808308952C98289874
:1000E00027E030E05C988091110190E0022E02C080
:1000F000959587950A94E2F780FF07C0289A5C9A45
:100100002150310978F72C9A08952898F8CFFC01EE
:100110008081833009F128F4813031F0823081F020
:100120000895843009F108958091B0008368809328
:10013000B00067706093B1001092B300239A0895E5
:100140008091B00083628093B00067706093B100CB
:100150001092B400539A089584B5836884BD677083
:1001600065BD17BC569A089584B5836284BD6770D7
:1001700065BD18BC559A0895FC018081833079F0E3
:1001800028F4813031F0823039F00895843049F01C
:1001900008956093B30008956093B400089567BD17
:1001A000089568BD0895CF93DF9300D00F92CDB727
:1001B000DEB76983282F2150330B220F331F275FAF
:1001C0003E4F2A833B83F90180836183833031F181
:1001D00050F4813071F08230E9F00F900F900F9061
:1001E000DF91CF9108958430C1F7809111018E7B0A
:1001F00003C080911101837F809311010E946E00E2
:1002000069818A819B810F900F900F90DF91CF9130
:100210000C948700809111018D7EEECF80911101A9
:100220008F75EACF8150843008F049C0282F30E024
:10023000F901EC5FFE4F808120503F4FF901208192
:100240006230C9F0643049F16130C9F541E050E0F5
:10025000BA0101C0660F8A95EAF7862F90911101C5
:10026000892B01C0440F2A95EAF740958423809397
:1002700011010C946E0041E050E0FA0101C0EE0F54
:100280008A95EAF78E2F809590911101892301C0FC
:10029000440F2A95EAF7842BEACF41E050E0BA01F7
:1002A00001C0660F2A95EAF7262F01C0440F8A95F0
:1002B000EAF7242B2095809111018223D8CF08954D
:1002C000249A209A549A579A0E945F007894109228
:1002D00011010E946E005F986DE781E00E94D300DB
:1002E0006DE782E00E94D30068EC89E091E00E9413
:1002F000BC0068EC8BE091E00E94BC0080E0909133
:1003000008019436E0F381110EC061E0809109018B
:100310000E94120161E080910B010E94120181E0B4
:1003200010920801ECCF62E0809109010E94120155
:1003300062E080910B010E94120180E0F1CFF894FD
:02034000FFCFED
:08034200030407060201050097
:00000001FF
