:100000000C9434000C9446000C9446000C9446006A
:100010000C9446000C9446000C9446000C94460048
:100020000C9446000C9446000C9446000C94480036
:100030000C9446000C9446000C9446000C94460028
:100040000C9446000C9446000C9446000C94460018
:100050000C9446000C9446000C9446000C94460008
:100060000C9446000C94460011241FBECFEFD8E03C
:10007000DEBFCDBF21E0A0E0B1E001C01D92A23003
:10008000B207E1F70E9469000C94B7000C940000DD
:100090008F938FB78F939F9380910001909101016F
:1000A000019690930101809300019F918F918FBFE2
:1000B0008F9118958BE08093810089EF90E0909369
:1000C000890080938800EFE6F0E080818260808381
:1000D0000895259A249A239A229A55985D9A0E9407
:1000E0005A00789480E090E0E0E1F0E02091000197
:1000F00030910101243F3140C8F34D99F7CF35B11C
:10010000282F220F220F337C232B25B90196BF0104
:100110000E948F001092010110920001E7CF97FB1F
:10012000072E16F4009407D077FD09D00E94A30093
:1001300007FC05D03EF4909581959F4F08957095EA
:1001400061957F4F0895AA1BBB1B51E107C0AA1FF1
:10015000BB1FA617B70710F0A61BB70B881F991F68
:100160005A95A9F780959095BC01CD010895F89412
:02017000FFCFBF
:00000001FF
