:100000000C9434000C943E000C943E000C943E0082
:100010000C943E000C943E000C943E000C943E0068
:100020000C943E000C943E000C943E000C943E0058
:100030000C943E000C943E000C943E000C943E0048
:100040000C943E000C943E000C943E000C943E0038
:100050000C943E000C943E000C943E000C943E0028
:100060000C943E000C943E0011241FBECFEFD8E04C
:10007000DEBFCDBF0E9457000C9475000C940000A9
:100080002C9827E030E090E0AC01022E02C055959C
:1000900047950A94E2F740FF08C0289A5C9A5C985A
:1000A0002150310988F72C9A08952898F7CF84B108
:1000B000896184B9549A2B9A8FEF0E9440002FEFE8
:1000C00083ED90E3215080409040E1F700C00000B4
:1000D00080E00E9440002FEF83ED90E321508040AC
:0E00E0009040E1F700C00000E7CFF894FFCF9A
:00000001FF
