:100000000C9434000C9446000C9446000C9446006A
:100010000C9446000C9446000C9446000C94460048
:100020000C9446000C9446000C9446000C94460038
:100030000C9446000C9446000C9446000C94460028
:100040000C9446000C9446000C9446000C94460018
:100050000C9446000C9446000C9446000C94460008
:100060000C9446000C94460011241FBECFEFD8E03C
:10007000DEBFCDBF21E0A0E0B1E001C01D92A13004
:10008000B207E1F70E948A000C94AE000C940000C5
:1000900008952C98289827E030E05C988091000122
:1000A00090E0022E02C0959587950A94E2F780FFB2
:1000B00007C0289A5C9A2150310978F72C9A089544
:1000C0002898F8CFE0EBF0E09081936890838770F8
:1000D0008093B1001092B300539A08958093B300B7
:1000E0000895813051F4623049F0643079F08091A4
:1000F0000001877F8460613029F0089580910001BC
:100100008B7F8860809300010C94490080910001EE
:10011000837FF8CF249A209A549A579A5F988091B7
:100120000001877F8460809300010E9449002FEFC7
:1001300083ED90E3215080409040E1F700C0000043
:1001400062E081E00E9471002FEF83ED90E3215087
:1001500080409040E1F700C00000E1CFF894FFCF6D
:00000001FF
