:100000000C9434000C9451000C9451000C94510049
:100010000C9451000C9451000C9451000C9451001C
:100020000C9451000C9451000C9451000C9453000A
:100030000C9451000C9451000C9451000C945100FC
:100040000C9451000C9451000C9451000C945100EC
:100050000C9451000C9451000C9451000C945100DC
:100060000C9451000C94510011241FBECFEFD8E026
:10007000DEBFCDBF11E0A0E0B1E0E2E1F3E002C0FD
:1000800005900D92A830B107D9F721E0A8E0B1E0C2
:1000900001C01D92AD30B207E1F70E9459010C94E6
:1000A00087010C9400008F938FB78F939F9380915B
:1000B000080190910901019690930901809308012C
:1000C0009F918F918FBF8F9118958BE080938100C6
:1000D00089EF90E09093890080938800EFE6F0E04C
:1000E00080818260808308952C98289827E030E0F2
:1000F0005C9880910C0190E0022E02C09595879546
:100100000A94E2F780FF07C0289A5C9A21503109CF
:1001100078F72C9A08952898F8CFFC0180818330D5
:1001200009F128F4813031F0823081F00895843073
:1001300009F108958091B00083688093B0006770E2
:100140006093B1001092B300239A08958091B0009B
:1001500083628093B00067706093B1001092B40026
:10016000539A089584B5836884BD677065BD17BCD4
:10017000569A089584B5836284BD677065BD18BCC6
:10018000559A0895FC018081833079F028F48130FC
:1001900031F0823039F00895843049F00895609349
:1001A000B30008956093B400089567BD089568BDD5
:1001B0000895CF93DF930F92CDB7DEB76983809315
:1001C0000A0160930B01833011F150F4813071F01A
:1001D0008230C9F08AE091E00F90DF91CF910895CD
:1001E0008430C1F780910C018E7B03C080910C019B
:1001F000837F80930C010E94740069818AE091E002
:100200000E948D00E7CF80910C018D7EF2CF80910E
:100210000C018F75EECF8150843008F049C0282F33
:1002200030E0F901EC5FFE4F808120503F4FF90133
:1002300020816230C9F0643049F16130C9F541E094
:1002400050E0BA0101C0660F8A95EAF7862F9091B7
:100250000C01892B01C0440F2A95EAF740958423AD
:1002600080930C010C94740041E050E0FA0101C04D
:10027000EE0F8A95EAF78E2F809590910C018923D5
:1002800001C0440F2A95EAF7842BEACF41E050E001
:10029000BA0101C0660F2A95EAF7262F01C0440F64
:1002A0008A95EAF7242B209580910C018223D8CFE0
:1002B0000895249A209A549A579A0E946500789437
:1002C00010920C010E9474005F986DE781E00E941B
:1002D000D900EC0168EC0E94C20080E02091080186
:1002E00030910901283E3340C8F381110AC061E012
:1002F00088810E940B0181E010920901109208018F
:10030000EDCF62E088810E940B0180E0F5CFF89488
:02031000FFCF1D
:080312000304070602010500C7
:00000001FF
