:100000000C9434000C9451000C9451000C94510049
:100010000C9451000C9451000C9451000C9451001C
:100020000C9451000C9451000C9451000C9453000A
:100030000C9451000C9451000C9451000C945100FC
:100040000C9451000C9451000C9451000C945100EC
:100050000C9451000C9451000C9451000C945100DC
:100060000C9451000C94510011241FBECFEFD8E026
:10007000DEBFCDBF11E0A0E0B1E0ECEFF2E002C0E6
:1000800005900D92A830B107D9F721E0A8E0B1E0C2
:1000900001C01D92AC30B207E1F70E9453010C94ED
:1000A0007C010C9400008F938FB78F93809108018F
:1000B0008F5F809308018F918FBF8F9118958BE090
:1000C0008093810083EC99E090938900809388006D
:1000D000EFE6F0E080818260808308952C98289874
:1000E00027E030E05C9880910B0190E0022E02C086
:1000F000959587950A94E2F780FF07C0289A5C9A45
:100100002150310978F72C9A08952898F8CFFC01EE
:100110008081833009F128F4813031F0823081F020
:100120000895843009F108958091B0008368809328
:10013000B00067706093B1001092B300239A0895E5
:100140008091B00083628093B00067706093B100CB
:100150001092B400539A089584B5836884BD677083
:1001600065BD17BC569A089584B5836284BD6770D7
:1001700065BD18BC559A0895FC018081833079F0E3
:1001800028F4813031F0823039F00895843049F01C
:1001900008956093B30008956093B400089567BD17
:1001A000089568BD0895CF93DF930F92CDB7DEB762
:1001B00069838093090160930A01833011F150F43F
:1001C000813071F08230C9F089E091E00F90DF91C9
:1001D000CF9108958430C1F780910B018E7B03C0CD
:1001E00080910B01837F80930B010E946E006981D7
:1001F00089E091E00E948700E7CF80910B018D7E1E
:10020000F2CF80910B018F75EECF8150843008F0D2
:1002100049C0282F30E0F901EC5FFE4F808120506B
:100220003F4FF90120816230C9F0643049F16130FB
:10023000C9F541E050E0BA0101C0660F8A95EAF7BE
:10024000862F90910B01892B01C0440F2A95EAF764
:100250004095842380930B010C946E0041E050E0A4
:10026000FA0101C0EE0F8A95EAF78E2F80959091E2
:100270000B01892301C0440F2A95EAF7842BEACFAA
:1002800041E050E0BA0101C0660F2A95EAF7262F37
:1002900001C0440F8A95EAF7242B209580910B0129
:1002A0008223D8CF0895249A209A549A579A0E946C
:1002B0005F00789410920B010E946E005F986DE7CA
:1002C00081E00E94D300EC0168EC0E94BC0080E059
:1002D000909108019436E0F3811108C061E08881B3
:1002E0000E94050181E010920801F2CF62E088814E
:0C02F0000E94050180E0F7CFF894FFCFDA
:0802FC000304070602010500DE
:00000001FF
