:100000000C9434000C9451000C9451000C94510049
:100010000C9451000C9451000C9451000C9451001C
:100020000C9451000C9451000C9451000C9451000C
:100030000C9451000C9451000C9451000C945100FC
:100040000C9451000C9451000C9451000C945100EC
:100050000C9451000C9451000C9451000C945100DC
:100060000C9451000C94510011241FBECFEFD8E026
:10007000DEBFCDBF11E0A0E0B1E0ECECF2E002C0E9
:1000800005900D92A830B107D9F721E0A8E0B1E0C2
:1000900001C01D92AB30B207E1F70E9438010C9409
:1000A00064010C9400002C98289827E030E05C98BC
:1000B00080910A0190E0022E02C0959587950A94DE
:1000C000E2F780FF07C0289A5C9A2150310978F73F
:1000D0002C9A08952898F8CFFC018081833009F18B
:1000E00028F4813031F0823081F00895843009F1B4
:1000F00008958091B00083688093B000677060932A
:10010000B1001092B300239A08958091B0008362E9
:100110008093B00067706093B1001092B400539A5E
:10012000089584B5836884BD677065BD17BC569A11
:10013000089584B5836284BD677065BD18BC559A07
:100140000895FC018081833079F028F4813031F00A
:10015000823039F00895843049F008956093B300F7
:1001600008956093B400089567BD089568BD08952B
:10017000CF93DF930F92CDB7DEB7698380930801E9
:1001800060930901833011F150F4813071F08230B5
:10019000C9F088E091E00F90DF91CF91089584300D
:1001A000C1F780910A018E7B03C080910A01837F91
:1001B00080930A010E945300698188E091E00E94C7
:1001C0006C00E7CF80910A018D7EF2CF80910A0109
:1001D0008F75EECF8150843008F049C0282F30E071
:1001E000F901EC5FFE4F808120503F4FF9012081E3
:1001F0006230C9F0643049F16130C9F541E050E046
:10020000BA0101C0660F8A95EAF7862F90910A011C
:10021000892B01C0440F2A95EAF7409584238093E7
:100220000A010C94530041E050E0FA0101C0EE0FC6
:100230008A95EAF78E2F809590910A01892301C053
:10024000440F2A95EAF7842BEACF41E050E0BA0147
:1002500001C0660F2A95EAF7262F01C0440F8A9540
:10026000EAF7242B209580910A018223D8CF0895A4
:10027000249A209A549A579A10920A010E94530085
:100280005F986DE784E00E94B800EC0168EC0E9482
:10029000A10061E088810E94EA002FEF83ED90E3E6
:1002A000215080409040E1F700C0000062E088816A
:1002B0000E94EA002FEF83ED90E3215080409040B0
:0C02C000E1F700C00000E5CFF894FFCF8C
:0802CC0003040706020105000E
:00000001FF
