:100000000C9434000C9446000C9446000C9446006A
:100010000C9446000C9446000C9446000C94460048
:100020000C9446000C9446000C9446000C94460038
:100030000C9446000C9446000C9446000C94460028
:100040000C9446000C9446000C9446000C94460018
:100050000C9446000C9446000C9446000C94460008
:100060000C9446000C94460011241FBECFEFD8E03C
:10007000DEBFCDBF21E0A0E0B1E001C01D92A13004
:10008000B207E1F70E9462000C9479000C94000022
:1000900008952C98289827E030E05C988091000122
:1000A00090E0022E02C0959587950A94E2F780FFB2
:1000B00007C0289A5C9A2150310978F72C9A089544
:1000C0002898F8CF249A209A549A579A5F9884E0F7
:1000D000809300010E9449002AEA36EE86E991E009
:1000E0002150304080409040D9F7000080E090E0FF
:0600F0000895F894FFCF13
:00000001FF
